:100000000C9435000C945D000C945D000C945D0024
:100010000C945D000C945D000C945D000C945D00EC
:100020000C945D000C945D000C945D000C945D00DC
:100030000C945D000C945D000C945D000C945D00CC
:100040000C949B080C945D000C9434060C940E06E2
:100050000C945D000C945D000C945D000C945D00AC
:100060000C945D000C945D005B0C11241FBECFEF5F
:10007000D8E0DEBFCDBF12E0A0E0B1E0ECEFFCE1E4
:1000800002C005900D92A43BB107D9F727E0A4EB7D
:10009000B2E001C01D92AF36B207E1F710E0C5E350
:1000A000D0E004C02197FE010E94410DC433D10766
:1000B000C9F70E94E5080C947C0E0C940000FC012A
:1000C000918D228D892F90E0805C9F4F821B91093A
:1000D0008F739927089580E090E0892B29F00E9482
:1000E000950581110C94000008950F931F93CF93F1
:1000F000DF932091B5022F5F322F37703093B50216
:1001000020FF02C020E801C020E031FD20643470EF
:1001100009F02062205FFC01EC01239600E011E071
:100120006485662331F070E0C8010E94E50C6F5FC2
:1001300001C060E06187322F369F030E30E0311D31
:100140001124311102C0168202C031503683662359
:1001500011F0615061873196CE17DF0709F7DF9103
:10016000CF911F910F91089580E991E00895559ADC
:100170000895EF92FF920F931F93CF93DF93CDB724
:10018000DEB762970FB6F894DEBF0FBECDBF7C011D
:10019000DC011C968C917A8369835C834B835E833C
:1001A0004D830D871E872F87813029F4CE0101965C
:1001B0000E94750006C01C861B861A861986188642
:1001C0001F8283E0888B1A8A198AD701ED91FC91EE
:1001D0000484F585E02DBE016F5F7F4FC70109954F
:1001E00062960FB6F894DEBF0FBECDBFDF91CF9100
:1001F0001F910F91FF90EF900895EF92FF920F9350
:100200001F93CF93DF93CDB7DEB762970FB6F89405
:10021000DEBF0FBECDBF7C01DC011C968C917A83C2
:1002200069835C834B835E834D830D871E872F8795
:10023000813029F4CE0101960E94750006C01C860B
:100240001B861A86198618861F82188A1A8A198AA6
:10025000D701ED91FC910484F585E02DBE016F5F1F
:100260007F4FC701099562960FB6F894DEBF0FBEA7
:10027000CDBFDF91CF911F910F91FF90EF90089527
:100280000F931F93CF93DF9300D01F92CDB7DEB7AC
:10029000AB0119821A821B82DC01ED91FC91019065
:1002A000F081E02D00E010E020E0BE016F5F7F4FA5
:1002B00009950F900F900F90DF91CF911F910F91A3
:1002C0000895FC0185859685089580E090E0089565
:1002D0004F925F926F927F928F92AF92BF92CF9226
:1002E000DF92EF920F931F93CF93DF933C01EB01CB
:1002F0000E940907F30127853089621B730B6A305E
:100300007105B0F3F894E881F9817BB170626BB14B
:100310006F7D6BB9CA848F812C2D281B822F2F8370
:10032000BF844A805B801D850C85DE841F5F0F5F64
:10033000D3949E813885A984EB844181D20120E049
:10034000C32F522F322F3181442788943111380F17
:1003500008F43FEF8195889410FD430F47958894EA
:1003600011FD430F4795889412FD430F47958894DC
:1003700013FD430F4795889414FD430F47958894C8
:1003800015FD430F4795889416FD430F47958894B4
:1003900017FD430F47958894232F1111242F8C0D9F
:1003A000422F002C7BB900C000C047FF6BB93081E1
:1003B0002227889400C0002C6BB93111390F00C07E
:1003C000002C7BB900C000C046FF6BB908F43FEFBA
:1003D0009195889400C0002C6BB900FD230F00C0DC
:1003E000002C7BB900C000C045FF6BB927958894ED
:1003F00001FD230F00C0002C6BB92795889400C025
:10040000002C7BB900C000C044FF6BB902FD230F74
:100410002795889400C0002C6BB903FD230F00C002
:10042000002C7BB900C000C043FF6BB927958894AE
:1004300004FD230F00C0002C6BB92795889400C0E1
:10044000002C7BB900C000C042FF6BB905FD230F33
:100450002795889400C0002C6BB906FD230F00C0BF
:10046000002C7BB900C000C041FF6BB92795889470
:1004700007FD230F00C0002C6BB92795889400C09E
:10048000002C7BB900C000C040FF6BB9432F0111A5
:10049000422F9A0D00C0002C6BB900C000C0002C88
:1004A0007BB900C000C047FF6BB932812227889416
:1004B00000C0002C6BB931113C0F00C0002C7BB97F
:1004C00000C000C046FF6BB908F43FEFEB0DF11D13
:1004D00000C0002C6BB9D0FC230F00C0002C7BB9EE
:1004E00000C000C045FF6BB927958894D1FC230F4D
:1004F00000C0002C6BB92795889400C0002C7BB9F4
:1005000000C000C044FF6BB9D2FC230F279588942C
:1005100000C0002C6BB9D3FC230F00C0002C7BB9AA
:1005200000C000C043FF6BB927958894D4FC230F0B
:1005300000C0002C6BB92795889400C0002C7BB9B3
:1005400000C000C042FF6BB9D5FC230F27958894EB
:1005500000C0002C6BB9D6FC230F00C0002C7BB967
:1005600000C000C041FF6BB927958894D7FC230FCA
:1005700000C0002C6BB92795889400C0002C7BB973
:1005800000C000C040FF6BB9432FD110422FC1956E
:1005900000C0002C6BB9CE0D00C000C07BB900C0FC
:1005A00000C047FF6BB931812227889400C0002C1E
:1005B0006BB93111380F00C0002C7BB900C000C0EE
:1005C00046FF6BB908F43FEF8195889400C0002C7A
:1005D0006BB910FD230F00C0002C7BB900C000C018
:1005E00045FF6BB92795889411FD230F00C0002C9F
:1005F0006BB92795889400C0002C7BB900C000C05F
:1006000044FF6BB912FD230F2795889400C0002C7E
:100610006BB913FD230F00C0002C7BB900C000C0D4
:1006200043FF6BB92795889414FD230F00C0002C5D
:100630006BB92795889400C0002C7BB900C000C01E
:1006400042FF6BB915FD230F2795889400C0002C3D
:100650006BB916FD230F00C0002C7BB900C000C091
:1006600041FF6BB92795889417FD230F00C0002C1C
:100670006BB92795889400C0002C7BB900C000C0DE
:1006800040FF6BB9432F1111422F8C0D00C0002C7D
:100690006BB9119709F086CE20EE31E0D2010E94AD
:1006A0001B0DDC01CB01F4E0B695A79597958795D6
:1006B000FA95D1F720E030E0B901EAE94E9E040C4A
:1006C000611D5E9E600D711D1124650D711D860FEB
:1006D000971FA11DB11D893E43E09407A105B105F7
:1006E00008F434C0885E9340A109B10942E0B69590
:1006F000A795979587954A95D1F747E0849F080E6F
:10070000211D949F200D311D1124290F311D609151
:10071000B40270E0860F971F820F931F4091FB0277
:100720005091FC026091FD027091FE02292F332747
:10073000420F531F611D711D4093FB025093FC0239
:100740006093FD027093FE028093B40278940E943D
:100750000907F301708B6787DF91CF911F910F918C
:10076000EF90DF90CF90BF90AF908F907F906F9081
:100770005F904F900895FC01848DDF01A80FB11D9B
:10078000A35ABF4F2C91848D90E001968F739927C7
:10079000848FA689B7892C93A089B1898C918370A5
:1007A00080648C93938D848D981306C00288F3899E
:1007B000E02D80818F7D80830895FC01A081B1812F
:1007C000109729F48FEF9FEF938382830895CD01D3
:1007D0000296918380838D919C911197938382835C
:1007E0008F3F2FEF9207C1F09D012C5F3F4F318368
:1007F000208312962D913C91139735832483918702
:100800008087821793071CF08FEF9FEF02C081E073
:1008100090E0978386830895918780870895CF938A
:10082000DF93FC01C085D185CF3F8FEFD80779F0EA
:1008300084819581C817D90721F4CF010E94DD0377
:1008400006C0868197818C0F9D1F91878087CE017E
:10085000DF91CF9108950F931F93CF93DF938C0176
:100860008AE491E00E94FB06C6EBD2E08881998180
:100870008017910729F4C8010E94EE0D1982188291
:10088000229682E0CE3DD80789F7DF91CF911F9164
:100890000F910895EF92FF920F931F93CF93DF93E1
:1008A000E90185E591E00E947806BE010D2E000C5D
:1008B000880B990B0E94BB0685E691E00E946606B4
:1008C00088E691E00E947806E881F9818081918133
:1008D0000E94E70680E791E00E947806E881F981AE
:1008E000828193810E94E70689E292E00E94FB06E2
:1008F0002BA13CA1CE014B962F3F3F4F71F5FE013E
:100900007196219131912F3F3F4F39F58E179F07F7
:10091000C1F78DA19EA10E942B041EA21DA28FEAE9
:1009200091E00E947806E881F981808191810E949E
:10093000E70680E791E00E947806E881F9818281EC
:1009400093810E94E70689E292E0DF91CF911F91A7
:100950000F91FF90EF900C94FB060E940F048C0106
:1009600084E791E00E947806E881F9818081918195
:100970000E94E70680E791E00E947806E881F9810D
:10098000828193810E94E70689E292E00E94FB0641
:100990008DE791E00E947806E98CFA8C8FEFE816DB
:1009A000F806B1F0F701EE0FFF1FEE0DFF1D898570
:1009B0009A85E80FF91F8B859C85AD85808391838F
:1009C000A2838DE891E00E947806C7010E94E706A5
:1009D0008F89988D9A8F898F8D899E89988F8F8B1B
:1009E0008B899C899E8B8D8B89899A899C8B8B8B1B
:1009F0008CE991E00E947806C8010E94ED061A8BEE
:100A0000098B17FD0FC0F801EE0FFF1F0E0F1F1F00
:100A1000E985FA85E00FF11F8E859F85A88980837F
:100A20009183A28386EA91E00E947806E881F981A9
:100A3000808191810E94E70680E791E00E9478061C
:100A4000E881F981828193810E94E70689E292E040
:100A50000E94FB0681E08093DE02DF91CF911F911F
:100A60000F91FF90EF900895CF92DF92EF92FF9257
:100A70000F931F93CF93DF936C017A018B01C0E03A
:100A8000D0E0CE15DF0581F0D8016D918D01D60142
:100A9000ED91FC910190F081E02DC6010995892B23
:100AA00011F02196EECF7E01C701DF91CF911F910A
:100AB0000F91FF90EF90DF90CF900895089580E020
:100AC00090E00895FC01538D448D252F30E0842F54
:100AD00090E0821B930B541710F0CF960895019766
:100AE0000895FC01918D828D981761F0828DDF0150
:100AF000A80FB11D5D968C91928D9F5F9F73928F11
:100B000090E008958FEF9FEF0895FC01918D828D05
:100B1000981731F0828DE80FF11D858D90E00895D2
:100B20008FEF9FEF08950E94770E81E093E00E947F
:100B30005F0021E0892B09F420E0822F0895EF92D5
:100B4000FF920F931F93CF93DF93EC0181E0888F87
:100B50009B8D8C8D981305C0E889F989808185FD6E
:100B600026C0F62E0B8D10E00F5F1F4F0F7311275D
:100B7000E02E8C8DE8120CC00FB607FCFACFE88986
:100B8000F989808185FFF5CFCE010E94BB03F1CFAB
:100B90008B8DFE01E80FF11DE35AFF4FF0829FB7E6
:100BA000F8940B8FEA89FB89808180620AC09FB725
:100BB000F894EE89FF896083E889F98980818370E0
:100BC000806480839FBF81E090E0DF91CF911F918F
:100BD0000F91FF90EF900895CF93DF93EC01888DF4
:100BE0008823C9F0EA89FB89808185FD05C0A88931
:100BF000B9898C9186FD0FC00FB607FCF5CF8081B7
:100C000085FFF2CFA889B9898C9185FFEDCFCE0100
:100C10000E94BB03E7CFDF91CF9108951F920F92FF
:100C20000FB60F9211242F933F934F935F936F93BF
:100C30007F938F939F93AF93BF93EF93FF9381E045
:100C400093E00E94BB03FF91EF91BF91AF919F9101
:100C50008F917F916F915F914F913F912F910F9065
:100C60000FBE0F901F9018951F920F920FB60F9204
:100C700011242F938F939F93EF93FF93E091110390
:100C8000F09112038081E0911703F091180382FD27
:100C900012C0908180911A038F5F8F7320911B0384
:100CA000821751F0E0911A03F0E0EF5FFC4F958F4F
:100CB00080931A0301C08081FF91EF919F918F91E2
:100CC0002F910F900FBE0F901F901895009769F00D
:100CD000FC0101900020E9F73197AF01481B590B47
:100CE000BC0181E093E00C94340580E090E008952D
:100CF0000C9466068F929F92AF92BF920F931F93B0
:100D0000CF93DF93CDB7DEB7A1970FB6F894DEBFD0
:100D10000FBECDBF19A2423008F44AE08E010F5D2C
:100D20001F4F842E912CA12CB12CA50194010E945F
:100D3000F90CE62FB901CA0101501109EA3014F487
:100D4000E05D01C0E95CD801EC93232B242B252B1B
:100D500061F7C8010E946606A1960FB6F894DEBF3F
:100D60000FBECDBFDF91CF911F910F91BF90AF907C
:100D70009F908F900895CF92DF92EF92FF92CF9342
:100D8000DF9397FF1BC06B017C016DE281E093E074
:100D90000E949F05EC0166277727CB016C197D091E
:100DA0008E099F094AE00E947A068C0F9D1FDF91F1
:100DB000CF91FF90EF90DF90CF9008954AE0DF91C0
:100DC000CF91FF90EF90DF90CF900C947A06BC010A
:100DD000990F880B990B0C94BB06CF93DF930E945D
:100DE000E706EC0185E691E00E9466068C0F9D1FE8
:100DF000DF91CF910895CF93DF930E946606EC01B7
:100E000085E691E00E9466068C0F9D1FDF91CF91D1
:100E100008953FB7F8948091570790915807A09193
:100E20005907B0915A0726B5A89B05C02F3F19F066
:100E30000196A11DB11D3FBFBA2FA92F982F88275A
:100E4000820F911DA11DB11DBC01CD0142E0660FB5
:100E5000771F881F991F4A95D1F708953F924F92A7
:100E60005F926F927F928F929F92AF92BF92CF923A
:100E7000DF92EF92FF920F931F93CF93DF9300D0F7
:100E80001F92CDB7DEB7D82E80914C0790914D07B9
:100E9000A0914E07B0914F07892B8A2B8B2BE9F03D
:100EA0000E94090700916107109162072091630772
:100EB00030916407DC01CB01801B910BA20BB30BBB
:100EC00000914C0710914D0720914E0730914F072C
:100ED00080179107A207B307B8F20E940907609331
:100EE0006107709362078093630790936407E091B2
:100EF0005407F0915507309759F0409150075091A1
:100F0000510760915207709153078D2D0995D82E86
:100F1000E090FF02F09000034D2C512C612C712CBD
:100F2000E114F10409F45EC0D7011C96CC901C9723
:100F300080914A0790914B078436910510F41C96D6
:100F40001C92D701ED91FC918280938019821A82C4
:100F50001B82D11014C009811A812B81F7014585AC
:100F6000568562817381C701F4010995D7011C96EA
:100F7000CC921C971496ED90FC901597D1CFF70169
:100F800036968E010F5F1F4F5701B9E0AB0EB11CB3
:100F90002191222309F132803320F1F0822F90E059
:100FA000A0E0B0E09C01AD012F5F3F4F4F4F5F4F7E
:100FB000C301B2010E94D50C9B01AC01832D90E0CE
:100FC000A0E0B0E0BC01CD016F5F7F4F8F4F9F4F1E
:100FD0000E94D50CD8018C930F5F1F4FEA15FB05BB
:100FE000B9F6B9CF80915F07909160079C012F5FA0
:100FF0003F4F3093600720935F0749970CF44CC034
:101000008FB7F8944091FB025091FC026091FD0271
:101010007091FE028FBF80915B0790915C07A09159
:101020005D07B0915E079A01AB01281B390B4A0B93
:101030005B0B21F421E030E040E050E0E0915F07FD
:10104000F091600788EE93E0E89FB001E99F700D92
:10105000F89F700D1124072E000C880B990B0E942D
:10106000F90C30934B0720934A07109260071092B7
:101070005F072FB7F8948091FB029091FC02A0913A
:10108000FD02B091FE022FBF80935B0790935C0737
:10109000A0935D07B0935E070F900F900F90DF91C4
:1010A000CF911F910F91FF90EF90DF90CF90BF9065
:1010B000AF909F908F907F906F905F904F903F90F8
:1010C00008958F929F92AF92BF92CF92DF92EF924C
:1010D000FF926B017C010E9409074B015C01C11466
:1010E000D104E104F104F1F00E940907DC01CB0115
:1010F00088199909AA09BB09883E9340A105B10541
:1011000070F321E0C21AD108E108F10888EE880ED8
:1011100083E0981EA11CB11CC114D104E104F104A8
:1011200019F7DDCFFF90EF90DF90CF90BF90AF9099
:101130009F908F9008951F920F920FB60F921124D7
:101140002F933F938F939F93AF93BF938091FB0215
:101150009091FC02A091FD02B091FE0230915607E1
:1011600023E0230F2D3720F40196A11DB11D05C0EA
:1011700026E8230F0296A11DB11D209356078093E8
:10118000FB029093FC02A093FD02B093FE028091BB
:10119000570790915807A0915907B0915A070196A7
:1011A000A11DB11D8093570790935807A09359072D
:1011B000B0935A07BF91AF919F918F913F912F911B
:1011C0000F900FBE0F901F901895CF93DF9300D014
:1011D00000D000D0CDB7DEB7789484B5826084BDEE
:1011E00084B5816084BD85B5826085BD85B581602B
:1011F00085BD80916E00816080936E0010928100A9
:101200008091810082608093810080918100816063
:101210008093810080918000816080938000809124
:10122000B10084608093B1008091B00081608093B0
:10123000B00080917A00846080937A0080917A0077
:10124000826080937A0080917A00816080937A0036
:1012500080917A00806880937A001092C100E091BA
:101260001103F091120382E08083E0910D03F0916D
:101270000E031082E0910F03F091100380E1808350
:1012800010921903E0911503F091160386E0808314
:10129000E0911303F0911403808180618083E091D9
:1012A0001303F0911403808188608083E09113031D
:1012B000F0911403808180688083E0911303F091A2
:1012C000140380818F7D808368EE73E080E090E07E
:1012D0000E9461088091F202811145C01092E402DF
:1012E0001092E3028FEF8093E7028093E8028093ED
:1012F000E9028093EA028093EB028093EC0281E0A2
:101300008093ED021092EF021092EE021092E6022C
:101310001092E5028091FF0290910003892B31F435
:1013200081EE92E0909300038093FF02E091DF0250
:10133000F091E002309721F081EE92E09583848372
:1013400081EE92E09093E0028093DF021092F1022E
:101350001092F0028AE291E09093E2028093E1021F
:1013600081E08093F202559A8EE993E09093E40233
:101370008093E3028CE291E09093EF028093EE027F
:1013800080914C0790914D07A0914E07B0914F0767
:10139000843C29E09207A105B10520F484EC99E092
:1013A000A0E0B0E080934C0790934D07A0934E07C8
:1013B000B0934F078FEF8093E70280EB8093E802B2
:1013C00080EF8093E90280E480934907FF24F3943F
:1013D00086EB92E09C01990F440B550B29833A83CD
:1013E0004B835C8354EF852E99249394A12CB12CCC
:1013F0006EED262E62E0362E409147075091480749
:101400005E834D83452B09F0B5C187EB91E00E94C7
:10141000FB068091220790912307892B09F45AC07B
:1014200081EC91E00E947806E0912207F091230779
:10143000808191810E94E70680E791E00E94780612
:10144000E0912207F0912307828193810E94E706B1
:1014500089E292E00E94FB06809122079091230787
:1014600090933E0780933D078DE397E00E94DD0354
:101470008091450790914607019651F18DE397E0E1
:101480000E940F048C0188EC91E00E947806C8014C
:101490000E94ED060D3281E0180758F080ED91E0D2
:1014A0000E94FB0668EE73E080E090E00E94610815
:1014B000DFCFF801EE0FFF1F0E0F1F1FE091260771
:1014C000F0912707E00FF11F108211821282D0CF16
:1014D000F092DE02809149070E942E0768E873E1CE
:1014E00080E090E00E9461088091FA028F2580934D
:1014F000FA0286EE91E00E94FB068091FA028111C9
:1015000005C030E0C32E31E0D32E04C02AE0C22E45
:1015100021E0D22E80EF91E00E94FB06D0922307BB
:10152000C092220789EF91E00E947806E09122079D
:10153000F0912307808191810E94E70680E791E086
:101540000E947806E0912207F0912307828193811F
:101550000E94E70689E292E00E94FB0610922507AE
:1015600010922407D0923E07C0923D078DE397E08A
:101570000E94DD038091450790914607019609F18D
:101580008DE397E00E940F048C0181E092E00E94BD
:101590007806C8010E94ED06F801EE0FFF1F0E0F3E
:1015A0001F1FE0912607F0912707E00FF11F8091A0
:1015B000280790912907A0912A0780839183A2830D
:1015C000D9CFD0923E07C0923D078DE397E00E94AD
:1015D000DD03F092DE0284E192E00E947806E09161
:1015E0002207F0912307808191810E94E70680E71E
:1015F00091E00E947806E0912207F0912307828112
:1016000093810E94E70689E292E00E94FB068CE14A
:1016100092E00E94FB068BE292E00E94FB0688E3C8
:1016200092E00E94FB0681E492E00E947806E0913D
:101630002207F0912307808191810E94E70680E7CD
:1016400091E00E947806E0912207F09123078281C1
:1016500093810E94E70689E292E00E94FB0689E4FA
:1016600092E00E94780669817A818B819C810E9438
:10167000BB0685E691E00E94660606EB12E0F801E3
:10168000C12CD12C81919191892B09F045C08CE519
:1016900092E00E94FB0681E190E00E94560D9E833D
:1016A0008D83FC0180829182A282B3822FEF3FEF73
:1016B000338722874AE454E0508B4787DC01148249
:1016C000158216821782168615861486E2E2F7E0E6
:1016D0001996FC93EE931897F601EE0FFF1FEA544C
:1016E000FD4FB183A0838CE692E00E947806C6018C
:1016F0000E94ED06D8016D917D918D01072E000CA1
:10170000880B990B0E94BB0685E892E00E94780640
:101710002016310679F708C0BFEFCB1ADB0A24E1A7
:10172000C216D10409F0AECF4D815E8150934807B7
:101730004093470789E892E00E947806E0912207EB
:10174000F0912307808191810E94E70680E791E074
:101750000E947806E0912207F0912307828193810D
:101760000E94E70689E292E00E94FB0685E292E091
:101770000E94FB068FB7F8944090FB025090FC0249
:101780006090FD027090FE028FBF06EB12E0D80160
:10179000ED91FD918D01FE83ED83309709F475C0C5
:1017A00084819581A681B781481659066A067B0611
:1017B00008F46BC081E992E00E9478064AE0C30118
:1017C000B2010E947A068EE992E00E947806AD810D
:1017D000BE8114966D917D918D919C9117974AE0F1
:1017E0000E947A0685E691E00E94660664E670E053
:1017F00080E090E00E946108ED81FE8184859585FE
:1018000001969587848720853185DF010784F089DB
:10181000E02DB301A201CD010995ED81FE81828504
:101820009385181619061CF4019793878287AD815A
:10183000BE811A968D919C911B97892B19F4CD012D
:101840000E942B04ED81FE8184819581A681B78160
:10185000892B8A2B8B2B21F44482558266827782D6
:10186000ED81FE81448155816681778180819181FE
:10187000A281B381840F951FA61FB71F8483958310
:10188000A683B78386858F258687F2E00E3D1F07E6
:1018900009F07DCF8091DE02882351F087EA92E043
:1018A0000E94FB06809149070E942E071092DE02DB
:1018B0000E946B00A1CDCF92DF92EF92E1E0F3E0C6
:1018C0001382128288EE93E0A0E0B0E084839583D7
:1018D000A683B7838CE391E09183808385EC90E0CD
:1018E0009587848784EC90E09787868780EC90E0EA
:1018F000918B808B81EC90E0938B828B82EC90E0DB
:10190000958B848B86EC90E0978B868B118E128E54
:10191000138E148EE8E6F7E0108211822FEF2283F7
:10192000E5E6F7E080E48083818382838091680725
:1019300090916907A0916A07C0906507D0906607EB
:10194000E0906707E2E2F7E04EE953E05287418713
:10195000C386D486E58686879787A08B8FEF9FEF17
:10196000928B818B948B838B968B858B908F878BBF
:10197000928F818F55834483C682D782E08616A2D8
:1019800015A211821082E9E4F7E02083128211820D
:10199000148613868FEF9FEFDC0187839087A187E2
:1019A000B287EF90DF90CF900895DB018F939F93E4
:1019B0000E94220DBF91AF91A29F800D911DA39F08
:1019C000900DB29F900D1124089597FB072E16F4E9
:1019D000009407D077FD09D00E942D0D07FC05D09B
:1019E0003EF4909581959F4F0895709561957F4F36
:1019F0000895A1E21A2EAA1BBB1BFD010DC0AA1F50
:101A0000BB1FEE1FFF1FA217B307E407F50720F067
:101A1000A21BB30BE40BF50B661F771F881F991FE2
:101A20001A9469F760957095809590959B01AC012B
:101A3000BD01CF0108950E94470DB7FF0895821B95
:101A4000930B08950E94470DA59F900DB49F900D94
:101A5000A49F800D911D11240895AA1BBB1B51E169
:101A600007C0AA1FBB1FA617B70710F0A61BB70B0E
:101A7000881F991F5A95A9F780959095BC01CD01B3
:101A80000895EE0FFF1F0590F491E02D0994A29F99
:101A9000B001B39FC001A39F700D811D1124911D42
:101AA000B29F700D811D1124911D08950F931F93F6
:101AB000CF93DF938230910510F482E090E0E091C3
:101AC0006D07F0916E0720E030E0A0E0B0E03097C5
:101AD00019F1408151810281138148175907C8F0DB
:101AE0008417950769F4109731F012960C931297AA
:101AF00013961C9327C000936D0710936E0722C0A6
:101B00002115310519F04217530718F49A01BD0148
:101B1000EF01DF01F801DBCF21153105F9F0281BBA
:101B2000390B2430310580F48A819B816115710560
:101B300021F0FB019383828304C090936E0780930E
:101B40006D07FE01329644C0FE01E20FF31F819340
:101B5000919322503109398328833AC020916B0731
:101B600030916C07232B41F4209112013091130125
:101B700030936C0720936B07209110013091110175
:101B80002115310541F42DB73EB740911401509114
:101B90001501241B350BE0916B07F0916C07E217E0
:101BA000F307A0F42E1B3F0B2817390778F0AC0180
:101BB0004E5F5F4F2417350748F04E0F5F1F50935D
:101BC0006C0740936B078193919302C0E0E0F0E0D3
:101BD000CF01DF91CF911F910F910895CF93DF93A4
:101BE000009709F481C0FC01329713821282A09100
:101BF0006D07B0916E07109781F420813181820FBB
:101C0000931F20916B0730916C072817390751F506
:101C1000F0936C07E0936B0767C0ED0120E030E0C4
:101C2000CE17DF0740F44A815B819E0141155105C3
:101C3000F1F0EA01F5CFD383C28340815181840F53
:101C4000951FC817D90759F488819981840F951F6A
:101C50000296918380838A819B819383828321155D
:101C6000310529F4F0936E07E0936D073DC0E9015B
:101C7000FB83EA8349915991C40FD51FEC17FD07E7
:101C800061F480819181840F951F0296E901998307
:101C90008883828193819B838A83E0E0F0E01296BF
:101CA0008D919C911397009719F0FD01DC01F7CFFE
:101CB0008D919C9111979D012E5F3F4F820F931F35
:101CC00020916B0730916C072817390769F430971A
:101CD00029F410926E0710926D0702C013821282CF
:101CE000B0936C07A0936B07DF91CF91089581E0CB
:0C1CF00090E0F8940C947C0EF894FFCF68
:101CFC004B0059003C000000FFFF00004A00FFFFB2
:101D0C0000006F0720000000000093059305930569
:101D1C0040016101650100000000FD00B900B70041
:101D2C0040016101B4006801000000009F0534050A
:101D3C006205EC055F00710585054B696C6C2054E0
:101D4C00696D657200547261696E2048616E646CD5
:101D5C0065723A20000D0A006D667769353A2000ED
:101D6C00205F20006D66776935413A20004164762A
:101D7C00616E636520747261696E3A200020205296
:101D8C00656D6F76652066726F6D2000202053653F
:101D9C007420746F20006D66776935423A20006DAF
:101DAC00667769343A20006E6F7720636C656172D8
:101DBC00006D6677693A2000436C6561723A2000C9
:101DCC002B2B2B2B2B204572726F72202B2B2B2B3A
:101DDC002B2B2B2B2B007374617274206E65770088
:101DEC005072696E74204657006D667769323A20DE
:101DFC000053657420547261636B436F6C6F722077
:101E0C00746F20006D667769333A20005072696EEA
:101E1C007420465720646F6E652E00466168727799
:101E2C00656720546573740046572073746172742F
:101E3C00006D667769373A20006164642054696DDF
:101E4C00657220746F206C6973742000667265650E
:101E5C0020736C6F7420666F756E64004E6577200E
:101E6C0054696D65722061646465642061742073CB
:101E7C006C6F742000203A20006D667769383A2028
:101E8C00005469636B202D206E6F773A20002C2054
:101E9C006E6578743A2000557064617465204C4509
:041EAC00447300007B
:00000001FF
