:100000000C9435000C945D000C945D000C945D0024
:100010000C945D000C945D000C945D000C945D00EC
:100020000C945D000C945D000C945D000C945D00DC
:100030000C945D000C945D000C945D000C945D00CC
:100040000C946D070C945D000C94A1050C947B0539
:100050000C945D000C945D000C945D000C945D00AC
:100060000C945D000C945D00FB0911241FBECFEFC2
:10007000D8E0DEBFCDBF11E0A0E0B1E0ECE3F8E1F5
:1000800002C005900D92A037B107D9F726E0A0E78E
:10009000B1E001C01D92AB32B207E1F710E0C5E359
:1000A000D0E004C02197FE010E94E10AC433D107C9
:1000B000C9F70E94B7070C941C0C0C94000080E94F
:1000C00091E00895CF92DF92EF92FF920F931F93EA
:1000D000CF93DF936C017A018B01C0E0D0E0CE15A5
:1000E000DF0581F0D8016D918D01D601ED91FC9174
:1000F0000190F081E02DC6010995892B11F0219620
:10010000EECF7E01C701DF91CF911F910F91FF903C
:10011000EF90DF90CF900895089580E090E00895EB
:10012000FC01538D448D252F30E0842F90E0821BFD
:10013000930B541710F0CF96089501970895FC0182
:10014000918D828D981761F0828DDF01A80FB11D0E
:100150005D968C91928D9F5F9F73928F90E0089532
:100160008FEF9FEF0895FC01918D828D981731F0EC
:10017000828DE80FF11D858D90E008958FEF9FEF40
:100180000895FC01918D228D892F90E0805C9F4F16
:10019000821B91098F73992708958DEB91E00E943E
:1001A000C10021E0892B09F420E0822F0895FC0191
:1001B000848DDF01A80FB11DA35ABF4F2C91848DF0
:1001C00090E001968F739927848FA689B7892C9325
:1001D000A089B1898C91837080648C93938D848D78
:1001E000981306C00288F389E02D80818F7D80837B
:1001F0000895EF92FF920F931F93CF93DF93EC013B
:1002000081E0888F9B8D8C8D981305C0E889F989D2
:10021000808185FD26C0F62E0B8D10E00F5F1F4FED
:100220000F731127E02E8C8DE8120CC00FB607FC5F
:10023000FACFE889F989808185FFF5CFCE010E9448
:10024000D700F1CF8B8DFE01E80FF11DE35AFF4F70
:10025000F0829FB7F8940B8FEA89FB8980818062D6
:100260000AC09FB7F894EE89FF896083E889F9890D
:1002700080818370806480839FBF81E090E0DF9104
:10028000CF911F910F91FF90EF900895CF93DF933F
:10029000EC01888D8823C9F0EA89FB89808185FD7E
:1002A00005C0A889B9898C9186FD0FC00FB607FCDF
:1002B000F5CF808185FFF2CFA889B9898C9185FF20
:1002C000EDCFCE010E94D700E7CFDF91CF91089507
:1002D00080E090E0892B29F00E94CD0081110C94E0
:1002E000000008950F931F93CF93DF932091710126
:1002F0002F5F322F37703093710120FF02C020E84A
:1003000001C020E031FD2064347009F02062205FDC
:10031000FC01EC01239600E011E06485662331F0D6
:1003200070E0C8010E94850A6F5F01C060E06187CC
:10033000322F369F030E30E0311D1124311102C0DF
:10034000168202C031503683662311F061506187F6
:100350003196CE17DF0709F7DF91CF911F910F91EB
:100360000895559A0895EF92FF920F931F93CF939C
:10037000DF93CDB7DEB762970FB6F894DEBF0FBE3E
:10038000CDBF7C01DC011C968C917A8369835C83F0
:100390004B835E834D830D871E872F87813029F421
:1003A000CE0101960E94720106C01C861B861A8629
:1003B000198618861F8283E0888B1A8A198AD701CA
:1003C000ED91FC910484F585E02DBE016F5F7F4FB8
:1003D000C701099562960FB6F894DEBF0FBECDBF78
:1003E000DF91CF911F910F91FF90EF900895EF92C1
:1003F000FF920F931F93CF93DF93CDB7DEB7629732
:100400000FB6F894DEBF0FBECDBF7C01DC011C9699
:100410008C917A8369835C834B835E834D830D87E4
:100420001E872F87813029F4CE0101960E94720128
:1004300006C01C861B861A86198618861F82188A93
:100440001A8A198AD701ED91FC910484F585E02D73
:10045000BE016F5F7F4FC701099562960FB6F89492
:10046000DEBF0FBECDBFDF91CF911F910F91FF90E7
:10047000EF9008950F931F93CF93DF9300D01F92B7
:10048000CDB7DEB7AB0119821A821B82DC01ED9178
:10049000FC910190F081E02D00E010E020E0BE0131
:1004A0006F5F7F4F09950F900F900F90DF91CF9165
:1004B0001F910F910895FC0185859685089580E030
:1004C00090E00895FC01A081B181109729F48FEF8D
:1004D0009FEF938382830895CD0102969183808359
:1004E0008D919C911197938382838F3F2FEF920779
:1004F000C1F09D012C5F3F4F3183208312962D91D7
:100500003C911397358324839187808782179307C3
:100510001CF08FEF9FEF02C081E090E0978386830D
:100520000895918780870895CF93DF93FC01C0855C
:10053000D185CF3F8FEFD80779F084819581C81797
:10054000D90721F4CF010E94620206C086819781FB
:100550008C0F9D1F91878087CE01DF91CF910895E9
:100560000E94170C4F925F926F927F928F92AF9280
:10057000BF92CF92DF92EF920F931F93CF93DF93AF
:100580003C01EB010E94DB05F30127853089621BEA
:10059000730B6A307105B0F3F894E881F9817BB18F
:1005A00070626BB16F7D6BB9CA848F812C2D281B53
:1005B000822F2F83BF844A805B801D850C85DE845B
:1005C0001F5F0F5FD3949E813885A984EB8441819E
:1005D000D20120E0C32F522F322F3181442788943B
:1005E0003111380F08F43FEF8195889410FD430FC7
:1005F0004795889411FD430F4795889412FD430F4A
:100600004795889413FD430F4795889414FD430F35
:100610004795889415FD430F4795889416FD430F21
:100620004795889417FD430F47958894232F111100
:10063000242F8C0D422F002C7BB900C000C047FF37
:100640006BB930812227889400C0002C6BB931111E
:10065000390F00C0002C7BB900C000C046FF6BB949
:1006600008F43FEF9195889400C0002C6BB900FD11
:10067000230F00C0002C7BB900C000C045FF6BB940
:100680002795889401FD230F00C0002C6BB9279596
:10069000889400C0002C7BB900C000C044FF6BB937
:1006A00002FD230F2795889400C0002C6BB903FD31
:1006B000230F00C0002C7BB900C000C043FF6BB902
:1006C0002795889404FD230F00C0002C6BB9279553
:1006D000889400C0002C7BB900C000C042FF6BB9F9
:1006E00005FD230F2795889400C0002C6BB906FDEB
:1006F000230F00C0002C7BB900C000C041FF6BB9C4
:100700002795889407FD230F00C0002C6BB927950F
:10071000889400C0002C7BB900C000C040FF6BB9BA
:10072000432F0111422F9A0D00C0002C6BB900C05D
:1007300000C0002C7BB900C000C047FF6BB93281FC
:100740002227889400C0002C6BB931113C0F00C0E7
:10075000002C7BB900C000C046FF6BB908F43FEF26
:10076000EB0DF11D00C0002C6BB9D0FC230F00C0B5
:10077000002C7BB900C000C045FF6BB92795889459
:10078000D1FC230F00C0002C6BB92795889400C0C2
:10079000002C7BB900C000C044FF6BB9D2FC230F12
:1007A0002795889400C0002C6BB9D3FC230F00C0A0
:1007B000002C7BB900C000C043FF6BB9279588941B
:1007C000D4FC230F00C0002C6BB92795889400C07F
:1007D000002C7BB900C000C042FF6BB9D5FC230FD1
:1007E0002795889400C0002C6BB9D6FC230F00C05D
:1007F000002C7BB900C000C041FF6BB927958894DD
:10080000D7FC230F00C0002C6BB92795889400C03B
:10081000002C7BB900C000C040FF6BB9432FD11042
:10082000422FC19500C0002C6BB9CE0D00C000C096
:100830007BB900C000C047FF6BB931812227889483
:1008400000C0002C6BB93111380F00C0002C7BB9EF
:1008500000C000C046FF6BB908F43FEF8195889453
:1008600000C0002C6BB910FD230F00C0002C7BB919
:1008700000C000C045FF6BB92795889411FD230F78
:1008800000C0002C6BB92795889400C0002C7BB960
:1008900000C000C044FF6BB912FD230F2795889458
:1008A00000C0002C6BB913FD230F00C0002C7BB9D6
:1008B00000C000C043FF6BB92795889414FD230F37
:1008C00000C0002C6BB92795889400C0002C7BB920
:1008D00000C000C042FF6BB915FD230F2795889417
:1008E00000C0002C6BB916FD230F00C0002C7BB993
:1008F00000C000C041FF6BB92795889417FD230FF6
:1009000000C0002C6BB92795889400C0002C7BB9DF
:1009100000C000C040FF6BB9432F1111422F8C0D56
:1009200000C0002C6BB9119709F086CE20EE31E0A3
:10093000D2010E94BB0ADC01CB01F4E0B695A79579
:1009400097958795FA95D1F720E030E0B901EAE96B
:100950004E9E040C611D5E9E600D711D1124650D7F
:10096000711D860F971FA11DB11D893E43E094079D
:10097000A105B10508F434C0885E9340A109B1090E
:1009800042E0B695A795979587954A95D1F747E0A8
:10099000849F080E211D949F200D311D1124290FC5
:1009A000311D6091700170E0860F971F820F931FB9
:1009B0004091B7015091B8016091B9017091BA01AD
:1009C000292F3327420F531F611D711D4093B7011B
:1009D0005093B8016093B9017093BA01809370018C
:1009E00078940E94DB05F301708B6787DF91CF91CC
:1009F0001F910F91EF90DF90CF90BF90AF908F90AD
:100A00007F906F905F904F9008950F931F93CF93B7
:100A1000DF938C01CDE8D1E088819981801791071F
:100A200029F4C8010E948E0B19821882229681E057
:100A3000C53BD80789F7DF91CF911F910F9108959A
:100A4000CF93DF93E9012BA13CA1CE014B962F3F21
:100A50003F4F89F4FE017196219131912F3F3F4F15
:100A600051F4E817F907C1F78DA19EA10E94050571
:100A70001EA21DA23DC00E949402298D3A8D2F3FD7
:100A80004FEF340779F0F901EE0FFF1F2E0F3F1FD4
:100A9000E985FA85E20FF31F2B853C854D85208380
:100AA000318342832F89388D3A8F298F2D893E8952
:100AB000388F2F8B2B893C893E8B2D8B29893A8946
:100AC0003C8B2B8B9A8B898B97FD0FC0FC01EE0F13
:100AD000FF1F8E0F9F1FE985FA85E80FF91F8E858E
:100AE0009F85A88980839183A28381E08093B5014B
:100AF000DF91CF9108951F920F920FB60F9211249C
:100B00002F933F934F935F936F937F938F939F9315
:100B1000AF93BF93EF93FF938DEB91E00E94D700CB
:100B2000FF91EF91BF91AF919F918F917F916F91C5
:100B30005F914F913F912F910F900FBE0F901F909B
:100B400018951F920F920FB60F9211242F938F9327
:100B50009F93EF93FF93E091CD01F091CE018081BF
:100B6000E091D301F091D40182FD12C09081809177
:100B7000D6018F5F8F732091D701821751F0E091DA
:100B8000D601F0E0E354FE4F958F8093D60101C06B
:100B90008081FF91EF919F918F912F910F900FBEC8
:100BA0000F901F90189542E050E06DE671E08DEBDC
:100BB00091E00C9462003FB7F894809113069091F5
:100BC0001406A0911506B091160626B5A89B05C07F
:100BD0002F3F19F00196A11DB11D3FBFBA2FA92FBC
:100BE000982F8827820F911DA11DB11DBC01CD0139
:100BF00042E0660F771F881F991F4A95D1F7089525
:100C00003F924F925F926F927F928F929F92AF929C
:100C1000BF92CF92DF92EF92FF920F931F93CF93E9
:100C2000DF9300D01F92CDB7DEB7D82E8091080693
:100C300090910906A0910A06B0910B06892B8A2B88
:100C40008B2BE9F00E94DB0500911D0610911E061A
:100C500020911F0630912006DC01CB01801B910BF7
:100C6000A20BB30B009108061091090620910A0609
:100C700030910B0680179107A207B307B8F20E94C4
:100C8000DB0560931D0670931E0680931F069093EC
:100C90002006E0911006F0911106309759F040912E
:100CA0000C0650910D0660910E0670910F068D2D69
:100CB0000995D82EE090BB01F090BC014D2C512C31
:100CC000612C712CE114F10409F45EC0D7011C966B
:100CD000CC901C978091060690910706843691056A
:100CE00010F41C961C92D701ED91FC9182809380A8
:100CF00019821A821B82D11014C009811A812B819A
:100D0000F7014585568562817381C701F401099514
:100D1000D7011C96CC921C971496ED90FC901597D9
:100D2000D1CFF70136968E010F5F1F4F5701B9E003
:100D3000AB0EB11C2191222309F132803320F1F056
:100D4000822F90E0A0E0B0E09C01AD012F5F3F4F0B
:100D50004F4F5F4FC301B2010E94750A9B01AC0166
:100D6000832D90E0A0E0B0E0BC01CD016F5F7F4F2C
:100D70008F4F9F4F0E94750AD8018C930F5F1F4FB2
:100D8000EA15FB05B9F6B9CF80911B0690911C06B8
:100D90009C012F5F3F4F30931C0620931B06499701
:100DA0000CF44CC08FB7F8944091B7015091B80142
:100DB0006091B9017091BA018FBF8091170690912F
:100DC0001806A0911906B0911A069A01AB01281BCA
:100DD000390B4A0B5B0B21F421E030E040E050E09E
:100DE000E0911B06F0911C0688EE93E0E89FB001AD
:100DF000E99F700DF89F700D1124072E000C880BD1
:100E0000990B0E94990A30930706209306061092C8
:100E10001C0610921B062FB7F8948091B701909191
:100E2000B801A091B901B091BA012FBF8093170604
:100E300090931806A0931906B0931A060F900F907E
:100E40000F90DF91CF911F910F91FF90EF90DF9066
:100E5000CF90BF90AF909F908F907F906F905F905A
:100E60004F903F9008958F929F92AF92BF92CF92F2
:100E7000DF92EF92FF926B017C010E94DB054B0138
:100E80005C01C114D104E104F104F1F00E94DB051E
:100E9000DC01CB0188199909AA09BB09883E934056
:100EA000A105B10570F321E0C21AD108E108F108EB
:100EB00088EE880E83E0981EA11CB11CC114D104D9
:100EC000E104F10419F7DDCFFF90EF90DF90CF90B0
:100ED000BF90AF909F908F9008951F920F920FB682
:100EE0000F9211242F933F938F939F93AF93BF93B0
:100EF0008091B7019091B801A091B901B091BA0168
:100F00003091120623E0230F2D3720F40196A11D06
:100F1000B11D05C026E8230F0296A11DB11D209327
:100F200012068093B7019093B801A093B901B093D2
:100F3000BA018091130690911406A0911506B09104
:100F400016060196A11DB11D8093130690931406F9
:100F5000A0931506B0931606BF91AF919F918F9104
:100F60003F912F910F900FBE0F901F90189578947E
:100F700084B5826084BD84B5816084BD85B582609E
:100F800085BD85B5816085BD80916E00816080934F
:100F90006E001092810080918100826080938100B8
:100FA00080918100816080938100809180008160C8
:100FB000809380008091B10084608093B100809123
:100FC000B00081608093B00080917A00846080934B
:100FD0007A0080917A00826080937A0080917A0012
:100FE000816080937A0080917A00806880937A0093
:100FF0001092C100E091CD01F091CE0182E080839A
:10100000E091C901F091CA011082E091CB01F09109
:10101000CC0180E180831092D501E091D101F09163
:10102000D20186E08083E091CF01F091D0018081F0
:1010300080618083E091CF01F091D0018081886050
:101040008083E091CF01F091D0018081806880831E
:10105000E091CF01F091D00180818F7D808368EE97
:1010600073E080E090E00E94330780918501811158
:1010700045C010927701109276018FEF80937A012C
:1010800080937B0180937C0180937D0180937E011E
:1010900080937F0181E08093800110928201109201
:1010A000810110927901109278018091BB01909199
:1010B000BC01892B31F484E791E09093BC018093CB
:1010C000BB01E0917201F0917301309721F084E748
:1010D00091E09583848384E791E0909373018093FA
:1010E000720110928401109283018AE291E0909340
:1010F00075018093740181E080938501559A8AE59A
:1011000092E090937701809376018CE291E0909346
:101110008201809381018091080690910906A09137
:101120000A06B0910B06843C29E09207A105B1059F
:1011300020F484EC99E0A0E0B0E08093080690935E
:101140000906A0930A06B0930B068FEF80937A01ED
:1011500080EB80937B0180EF80937C0180E480931F
:101160000506FF24F39464EF862E99249394A12C12
:10117000B12C7EED272E75E0372EE5EBCE2EE1E08B
:10118000DE2EC0910306D0910406209709F0CAC054
:101190008091DE059091DF050097C1F19093FA05EB
:1011A0008093F90589EF95E00E9462028091010623
:1011B00090910206019641F189EF95E00E94940218
:1011C0008D32F1E09F0788F045E150E06AE471E07C
:1011D0008DEB91E00E9462000E94D30568EE73E0FF
:1011E00080E090E00E943307E1CFFC01EE0FFF1F8B
:1011F0008E0F9F1FE091E205F091E305E80FF91FC4
:10120000108211821282D2CFF092B5018091050630
:101210000E94000668E873E180E090E00E943307D6
:101220008091B6018F258093B601811103C000E043
:1012300011E002C00AE011E01093DF050093DE0523
:101240001092E1051092E0051093FA050093F9055C
:1012500089EF95E00E94620280910106909102065A
:101260000196C9F089EF95E00E9494029C01220F3B
:10127000331F820F931FE091E205F091E305E80F21
:10128000F91F8091E4059091E505A091E605808322
:101290009183A283E1CF1093FA050093F90589EFBA
:1012A00095E00E946202F092B5014CE050E060E6E9
:1012B00071E08DEB91E00E9462000E94D305EDE8A1
:1012C000F1E000E010E081919191892B11F581E12D
:1012D00090E00E94F60AEC0188829982AA82BB8281
:1012E0008FEF9FEF9B878A87E0E2F5E0F88BEF872F
:1012F0001C821D821E821F821E861D861C863986C8
:101300002886000F111FF801E357FE4FD183C083D9
:1013100005C00F5F1F4F04311105A9F6D0930406D5
:10132000C09303068FB7F8944090B7015090B8016E
:101330006090B9017090BA018FBF0DE811E0F8011B
:10134000C191D1918F01209709F444C08C819D8176
:10135000AE81BF81481659066A067B06D8F18C8596
:101360009D8501969D878C8728853985EF85F8892D
:10137000B301A201CE0109958A859B85181619062D
:101380001CF401979B878A878A859B85892B19F492
:10139000CE010E9405058C819D81AE81BF81892B84
:1013A0008A2B8B2B21F44C825D826E827F824C8152
:1013B0005D816E817F8188819981AA81BB81840F43
:1013C000951FA61FB71F8C839D83AE83BF838E8519
:1013D0008F258E87C016D10609F0B1CF8091B50157
:1013E000882331F0809105060E9400061092B50115
:1013F0000E946801C6CECF92DF92EF92EDEBF1E052
:101400001382128288EE93E0A0E0B0E0848395839B
:10141000A683B7838CE391E09183808385EC90E091
:101420009587848784EC90E09787868780EC90E0AE
:10143000918B808B81EC90E0938B828B82EC90E09F
:10144000958B848B86EC90E0978B868B118E128E19
:10145000138E148EE4E2F6E0108211822FEF2283C5
:10146000E1E2F6E080E48083818382838091240638
:1014700090912506A0912606C0902106D0902206C4
:10148000E0902306EEEDF5E04AE552E05287418711
:10149000C386D486E58686879787A08B8FEF9FEFDC
:1014A000928B818B948B838B968B858B908F878B84
:1014B000928F818F55834483C682D782E08616A29D
:1014C00015A211821082E5E0F6E0208312821182DB
:1014D000148613868FEF9FEFDC0187839087A187A7
:1014E000B287EF90DF90CF900895DB018F939F93A9
:1014F0000E94C20ABF91AF91A29F800D911DA39F30
:10150000900DB29F900D1124089597FB072E16F4AD
:10151000009407D077FD09D00E94CD0A07FC05D0C2
:101520003EF4909581959F4F0895709561957F4FFA
:101530000895A1E21A2EAA1BBB1BFD010DC0AA1F14
:10154000BB1FEE1FFF1FA217B307E407F50720F02C
:10155000A21BB30BE40BF50B661F771F881F991FA7
:101560001A9469F760957095809590959B01AC01F0
:10157000BD01CF0108950E94E70AB7FF0895821BBD
:10158000930B08950E94E70AA59F900DB49F900DBC
:10159000A49F800D911D11240895AA1BBB1B51E12E
:1015A00007C0AA1FBB1FA617B70710F0A61BB70BD3
:1015B000881F991F5A95A9F780959095BC01CD0178
:1015C0000895EE0FFF1F0590F491E02D0994A29F5E
:1015D000B001B39FC001A39F700D811D1124911D07
:1015E000B29F700D811D1124911D08950F931F93BB
:1015F000CF93DF938230910510F482E090E0E09188
:101600002906F0912A0620E030E0A0E0B0E0309713
:1016100019F1408151810281138148175907C8F09F
:101620008417950769F4109731F012960C9312976E
:1016300013961C9327C00093290610932A0622C0F4
:101640002115310519F04217530718F49A01BD010D
:10165000EF01DF01F801DBCF21153105F9F0281B7F
:10166000390B2430310580F48A819B816115710525
:1016700021F0FB019383828304C090932A06809318
:101680002906FE01329644C0FE01E20FF31F81934A
:10169000919322503109398328833AC0209127063B
:1016A00030912806232B41F420911201309113012F
:1016B00030932806209327062091100130911101C4
:1016C0002115310541F42DB73EB7409114015091D9
:1016D0001501241B350BE0912706F0912806E2172F
:1016E000F307A0F42E1B3F0B2817390778F0AC0145
:1016F0004E5F5F4F2417350748F04E0F5F1F509322
:101700002806409327068193919302C0E0E0F0E021
:10171000CF01DF91CF911F910F910895CF93DF9368
:10172000009709F481C0FC01329713821282A091C4
:101730002906B0912A06109781F420813181820F09
:10174000931F20912706309128062817390751F555
:10175000F0932806E093270667C0ED0120E030E013
:10176000CE17DF0740F44A815B819E014115510588
:10177000F1F0EA01F5CFD383C28340815181840F18
:10178000951FC817D90759F488819981840F951F2F
:101790000296918380838A819B8193838283211522
:1017A000310529F4F0932A06E09329063DC0E901AA
:1017B000FB83EA8349915991C40FD51FEC17FD07AC
:1017C00061F480819181840F951F0296E9019983CC
:1017D0008883828193819B838A83E0E0F0E0129684
:1017E0008D919C911397009719F0FD01DC01F7CFC3
:1017F0008D919C9111979D012E5F3F4F820F931FFA
:1018000020912706309128062817390769F4309768
:1018100029F410922A061092290602C0138212821D
:10182000B0932806A0932706DF91CF91089581E019
:0C18300090E0F8940C941C0CF894FFCF8E
:10183C004B0059003C000000FFFF00004A00FFFF76
:10184C0000002B06200000000000B002B002B00225
:10185C003A025B025F0200000000F701B301B10124
:10186C003A025B025F00B20200000000F900620065
:10187C0090004601C1009F00B3002B2B2B2B2B207B
:10188C004572726F72202B2B2B2B2B2B2B2B2B009F
:10189C00466168727765672054657374000D0A00A1
:00000001FF
